:10056A00C0F9A4B0999282F88090BFFFB6808284C5
:10057A0086888A8C81838587898B8D5059230604C6
:02058A0003224A
:10058C00070F00000000000000030C000000010B2E
:0B059C0001C101C100010A03010903B5
:1005C40012048312060B1204521205231201901214
:0405D40005EC80F5BD
:10048300E5A0541F4480F5A07580FFE5A0541F44E8
:10049300A0F5A0E4F580E5A0541F44C0F5A0758045
:0D04A300FFE5A0541F44E0F5A07580FF2286
:10045200E4FD7F8E1205D8E4F516C3E51694077401
:100462008094805015E51690057793FFE516900568
:100472008593FD1205D8051680E07D807F8E0205EA
:01048200D8A1
:10052300E4F516C3E5169407748094805015E51618
:1005330090057E93FF1203DC740F2516F8A60705BA
:030543001680E03F
:010546002292
:1002BA00E50E75F00A8490056A93FDE4FF1203BC0B
:1002CA000F120325E50E75F00A84E5F093FD7F0110
:1002DA001203BC120325900574E493FD7F021203F6
:1002EA00BC1F120325E50D75F00A8490056A93FD7B
:1002FA007F031203BC7F01120325E50D75F00A8402
:10030A00E5F093FD7F041203BC7F011203259005DB
:0B031A00747F05E493FD1203BC7F011B
:100325007E00D3EF9400EE940040147D2A7C03ED0B
:0F0335001D70011CED4C70F7EF1F70E61E80E38A
:010344002296
:10039300E511C4540F90056A93FDE4FF1203BC0FEB
:1003A300120325E511540F93FD7F011203BC1203C1
:0903B30025900574E493FD7F021E
:1003BC00E5A0541F44C0F5A0A8077401088002C32F
:1003CC0033D8FCF580E5A0541F44E0F5A08D8022C5
:1005EC00E50B24FE60060470060200D812000E22F1
:0D060B00758CD8758AF0D28CD2A9D2AF229E
:03000B000204FEEE
:1004FE00C0E0C0F0C0D00508E50875F00A84E5F04C
:10050E007002B201E50864327004F508B200D0D072
:05051E00D0F0D0E03236
:1000D80030000302018CE50A14603C14605F147060
:1000E8000302018A2403600302018F900575E493DB
:1000F800FDE4FF1203BC0F120325E41203AA1F122A
:100108000325E510C4540F90056A93FD7F0312037D
:1001180020E510540F800E1203931F120325A37FAE
:100128000312031DE412030CE50FC4540F90056A73
:1001380093FD7F06120320E50F540F8027120393C7
:100148001F120325E510C4540F90056A93FD7F0321
:10015800120320E510540F12030CA3E493FD7F064D
:10016800120320E493FD7F07120320E5A0541F44E7
:10017800C0F5A07580FFE5A0541F44E0F5A0758088
:08018800FF2280001203452252
:100345001203931F120325E510C4540F90056A93F9
:10035500FD7F03120320E510540F12030CE50FC4B3
:10036500540F90056A93FD7F06120320E50F540F85
:1003750093FD7F07120320E5A0541F44C0F5A07527
:0E03850080FFE5A0541F44E0F5A07580FF2224
:1001900020B0237F0512032530B00302022D750B1A
:1001A00001050AD3E50A9403748094804003E4F5C2
:1001B0000A20B07980FB20B1207F0512032520B1F1
:1001C0006C750B020509D3E5099403748094804093
:1001D00003E4F50920B15680FB20B2517F051203DC
:1001E0002520B249E50B64027040E509146019143A
:1001F000602824027034050ED3E50E9417748094A1
:10020000804027E4F50E8022050DD3E50D943B7464
:100210008094804015E4F50D8010050CD3E50C9416
:0E0220003B748094804003E4F50C30B2FD2264
:10000E003000030200D4E5091460441470030200AA
:10001E00A71470030200D2240360030200D79005D8
:10002E0075E493FDE4FF1203BC0F120325E41203E3
:10003E00AA1F120325E50D75F00A8490056A93FD3B
:10004E007F03120320E50D75F00A84E5F0802DE59F
:10005E000E75F00A8490056A93FDE4FF1203BC0F3F
:10006E00120325E50E75F00A84E5F01203AA1F129D
:10007E000325A3E493FD7F03120320E412030CE592
:10008E000C75F00A8490056A93FD7F06120320E535
:10009E000C75F00A84E5F0800D1202BAA3E493FD0C
:1000AE007F06120320E493FD7F07120320E5A05480
:1000BE001F44C0F5A07580FFE5A0541F44E0F5A0D5
:0A00CE007580FF2280001204192241
:100419001202BAE50C75F00A8490056A93FD7F060D
:10042900120320E50C75F00A84E5F093FD7F0712AD
:100439000320E5A0541F44C0F5A07580FFE5A05432
:090449001F44E0F5A07580FF22BC
:1005A800E4FEEEC3940874809480500FC297EF1352
:0B05B80092A3EFC313FFD2970E80E761
:0105C3002215
:1005D800C29300C29700D293001205A8AF05120576
:0405E800A8C29322F0
:1003DC00E4FDC29300C29700D293001205A8E4FF7B
:1003EC00EFC39408748094805011C297EDC313FD31
:1003FC0030A303430580D2970F80E5C29300C297C8
:0C040C0000D29700C2A300D2A300AF05ED
:0104180022C1
:0405FC007F327E00CC
:0B060000EF1FAC0670011E4C70F622CC
:0204B000AD0796
:1004B200E4FBEBC39408748094805012C294ED1351
:1004C20092941205FCD294EDC313FD0B80E47F32AB
:0504D2007E000206009F
:10054700E4FBEBC39408748094805014C294EDC309
:1005570013FDD2943094034305801205FC0B80E20F
:02056700AF05DE
:01056900226F
:1004D700C202D2947F787E00120600C2947F207EEB
:1004E70003120600D2947F647E00120600A2949243
:0604F700021205FCA20246
:0104FD0022DC
:0300000002022ECB
:0C022E00787FE4F6D8FD7581200202758F
:10023A000205C4E493A3F8E493A34003F68001F211
:10024A0008DFF48029E493A3F85407240CC8C333C5
:10025A00C4540F4420C8834004F456800146F6DF94
:10026A00E4800B010204081020408090058CE47E93
:10027A00019360BCA3FF543F30E509541FFEE49389
:10028A00A360010ECF54C025E060A840B8E493A350
:10029A00FAE493A3F8E493A3C8C582C8CAC583CA7B
:1002AA00F0A3C8C582C8CAC583CADFE9DEE780BE33
:0105A7000053
:00000001FF
