:030000000208B83B
:0C08B800787FE4F6D8FD75810C0208FF83
:0D0A5900C0F9A4B0999282F88090BF8EFF82
:0B0A6600020B00000209000001080064
:0B0A7200120999120A3212080080FBE2
:10099900E5A0541F4480F5A07580FFE5A0541F44CD
:1009A900A0F5A0E4F580E5A0541F44C0F5A075802A
:0D09B900FFE5A0541F44E0F5A07580FF226B
:100A3200758916758CFF758AFF758D3C758BB0D2E2
:0A0A42008CD28ED2A9D2ABD2AF2223
:03000B00020A4C9A
:0D0A4C00C0E0050CE50C7002050BD0E03297
:03001B00020A13C3
:100A1300C0E0758D3C758BB00508E5086414700C57
:0F0A2300F508850B09850C0AF50BF50CD0E032B0
:0509EE001209C67F01A3
:1009F3007E00D3EF9400EE940040147D2F7C03ED32
:0F0A03001D70011CED4C70F7EF1F70E61E80E3B5
:010A120022C1
:1009C6007580FFE5A0541F44C0F5A0A80774010870
:1009D6008002C333D8FCF580E5A0541F44E0F5A09F
:0809E600ED900A5993F58022FF
:100800007D0BE4FF1209C60F1209F37D0C7F011264
:1008100009C61209F37D0C7F021209C61F1209F3E3
:10082000D3E50A940FE50994274012AE09AF0A7C7C
:10083000277D10120944AD077F031209EED3E50AA4
:1008400094E7E50994034017AE09AF0A7C037DE8FD
:100850001209447C007D0A1209447F041209EED378
:10086000E50A9463E50994004017AE09AF0A7C00DD
:100870007D641209447C007D0A1209447F05120937
:10088000EED3E50A9409E50994004017AE09AF0AD2
:100890007C007D0A1209447C007D0A1209447F060F
:1008A0001209EEAE09AF0A7C007D0A1209447F07E7
:0808B0001209C67F010209F3E1
:1008C400020A72E493A3F8E493A34003F68001F2CE
:1008D40008DFF48029E493A3F85407240CC8C33335
:1008E400C4540F4420C8834004F456800146F6DF04
:1008F400E4800B0102040810204080900A66E47E24
:10090400019360BCA3FF543F30E509541FFEE493F8
:10091400A360010ECF54C025E060A840B8E493A3BF
:10092400FAE493A3F8E493A3C8C582C8CAC583CAEA
:10093400F0A3C8C582C8CAC583CADFE9DEE780BEA2
:010A71000084
:10094400BC000BBE0029EF8DF084FFADF022E4CC97
:10095400F875F008EF2FFFEE33FEEC33FCEE9DEC60
:10096400984005FCEE9DFE0FD5F0E9E4CEFD22EDA6
:10097400F8F5F0EE8420D21CFEADF075F008EF2FF0
:10098400FFED33FD4007985006D5F0F222C398FDE1
:050994000FD5F0EA227E
:00000001FF
