:0A0A2D00C0F9A4B0999282F88090FD
:0C000E00010F000113000112000114009A
:1009CB00EFD3940074809480400B7E027D27DDFE74
:0509DB00DEFC1F80EBB3
:0109E00022F4
:10082F00EF24FB601314601914601F24037023E579
:10083F00A0541F4480F5A022E5A0541F44A0F5A0AA
:10084F0022E5A0541F44C0F5A022E5A0541F44E0A8
:03085F00F5A022DF
:0F086200742D2FF582740A3EF583E493FF7D0613
:10087100AE077F0612082FAF05A807740108800292
:10088100C333D8FCF5807F0712082F8E807F1402B6
:0208910009CB91
:1009E1007F0612082F7580FF0F12082F7580FF7F79
:0409F100140209CB18
:10089300120A067F901207FA1209F57F431207FA2C
:1008A3001209F5120A21120A067F911207FA120998
:1008B300F512091B7510008F11D2001209B4020A38
:0108C3002113
:100941008E198F1A120A067F901207FA1209F57F83
:10095100401207FA1209F5AF1A1207FA1209F50245
:020961000A2169
:10063E00120893AC10AD11E41201297B0C7A0279E9
:10064E00FB783F12001E1201628E0D8F0EE51370A5
:10065E0064FD7FC1120871AE0DAF0E7C007D641279
:10066E0001E3742D2FF582740A3EF583E493547FD3
:10067E00FF7D05120871AE0DAF0E7C007D64120178
:10068E00E37E007F0ACFCDCFCECCCE1201E312088F
:10069E0062AE0DAF0E7C007D0A1201E3742D2DF5B6
:1006AE0082740A3CF583E493FF7D071208717D077F
:0906BE007FFF0208711209E1221C
:10037900E51314700302050C04600302050FE4FD84
:100389007F8E1208717F9F7E867D017C00AB0CAA4F
:100399000BA90AA809D312029540257BA07A867970
:1003A900017800AF0CAE0BAD0AAC0912077F742DB2
:1003B9002FF582740A3EF583E493FF7D02120871DA
:1003C900E47F0F7E27FDFCAB0CAA0BA90AA809D371
:1003D90012029540377BA07A8679017800AF0CAE7E
:1003E9000BAD0AAC0912077FAC00AD01AE02AF0339
:1003F900E47B107A27F9F812077F742D2FF58274A0
:100409000A3EF583E493FF7D03120871E47FE77EDA
:1004190003FDFCAB0CAA0BA90AA809D3120295404B
:1004290036E47B107A27F9F8AF0CAE0BAD0AAC09AC
:1004390012077FAC00AD01AE02AF03E47BE87A039B
:10044900F9F812077F742D2FF582740A3EF583E4BB
:1004590093FF7D04120871E47F63FEFDFCAB0CAAD7
:100469000BA90AA809D31202954035E47BE87A035F
:10047900F9F8AF0CAE0BAD0AAC0912077FAC00ADB1
:1004890001AE02AF03E47B64FAF9F812077F742D19
:100499002FF582740A3EF583E493FF7D05120871F6
:1004A900E47F09FEFDFCAB0CAA0BA90AA809D3122B
:1004B90002954025E47B64FAF9F8AF0CAE0BAD0A5E
:1004C900AC0912077FAC00AD01AE02AF03E47B0AB1
:1004D900FAF9F812077F120862E47B0AFAF9F8AF11
:1004E9000CAE0BAD0AAC0912077F742D2BF5827483
:1004F9000A3AF583E493FF7D071208717D077FFFB0
:070509000208711209E12252
:10098100758916758CFF758AFF758D3C758BAFD295
:0A099100AFD2ABD2A9D28ED28C22D5
:03000B0002096384
:10096300C0E0C0D0E5182401F518E43517F517E405
:0E0973003516F516E43515F515D0D0D0E03266
:03001B000206C713
:1006C700C0E0C0F0C083C082C0D075D000C000C0F9
:1006D70001C002C003C004C005C006C007758D3C39
:1006E700758BAF0508E508640A70277F02FEFDFCDD
:1006F700AB18AA17A916A8151202388F0C8E0B8DE6
:100707000A8C0975180075170075160075150075A0
:100717000800D007D006D005D004D003D002D001FE
:0D072700D000D0D0D082D083D0F0D0E0320E
:1005100020B0207F0A1209CB20B0180513E5136420
:10052000027002F51320B00BE513640170F7120995
:10053000E180F220B1277F0A1209CB20B11F0514F8
:10054000E51464027002F51420B112E50F64017025
:1005500003120379E50F70F012063E80EB20B227FC
:100560007F0A1209CB20B21F0512E5126402700245
:10057000F51220B212E50F700312063EE50F64017A
:1005800070F012037980EB20B3277F0A1209CB2089
:10059000B31F050FE50F64027002F50F20B312E5DB
:1005A0000F6401700312063EE50F70F012037980AC
:0205B000EB223C
:10099B00E5121460090470107F667E008007120850
:0909AB0093AF11AE1012094122B4
:1007C300E51414602904702EE50F70087580FE127D
:1007D30008C480067580FD120734E5127008438053
:1007E300105380FB80035380EF7F0402082F7F04A4
:0707F30012082F7580FF22A0
:1008C400C3E50E9496E50D940050028018C3E50E1E
:1008D40094FAE50D94005002800FC3E50E945EE592
:0D08E4000D94015004438004225380FB2238
:10073400E47FE87E03FDFCAB0CAA0BA90AA809C35D
:100744001202955002802CE47F887E13FDFCAB0CD2
:10075400AA0BA90AA809C312029550028019E47FC2
:10076400107E27FDFCAB0CAA0BA90AA809C3120230
:0B077400955004438008225380F722B8
:090A37007F0512082FE4F580226E
:1008F100120A37120981E50F1460110470F812060B
:100901003E1207C312099B12051080EA12037912E5
:0A09110007C312099B12051080DCD9
:040A1500D2A07F05E7
:080A190000AE071FEE70F92288
:0F0A0600D2A1120A15C2A17F05120A19C2A0229D
:0C0A2100C2A1120A15D2A17F05020A1919
:1009B400C2A0A20092A17F05120A19120A15C2A0B0
:0709C400D2A17F05020A1910
:1009F500120A15A2A19200C2A07F05120A19A2002F
:010A050022CE
:0207FA00AD0749
:1007FC00E4FCECC39408748094805024C2A07F0560
:10080C00120A19ED30E704D2A18002C2A17F0512B1
:10081C000A19D2A0ED25E0FD7F05120A190C80D231
:02082C00C2A068
:01082E0022A7
:10091B00E4FCECC39408748094805017120A15ED14
:10092B0025E0FD30A103430501C2A07F05120A1982
:05093B000C80DFAF0598
:010940002294
:10001E00EC4D6011E8497017ED33EC3304600DE4DC
:10002E00FCFFFEFD22E933E8330470F80201CE1224
:10003E00019958046009E4CC248150062850090225
:10004E0001D82840030201D5C0E0EB4A7044B980C4
:10005E0006D0E0FB0201C4EF4E701CBD8008EBFF22
:10006E00EAFEE9FD80EBE98DF0A4FEE5F002010762
:10007E00E9CDF9EAFEEBFFEF89F0A4FCE5F0CE89BD
:10008E00F0A42EFFE435F0CD89F0A42DFEE435F07A
:10009E008067EF4E7005BD80D780C3EF8BF0A4ACA8
:1000AE00F0EE8BF0A42CFCE435F0F8EF8AF0A42CE3
:1000BE00E5F038FCE433CB8DF0A42CFCE5F03BF8F6
:1000CE00EE8AF0A42CFCE5F038F8E433CF89F0A4E6
:1000DE002CFCE5F038CF3400CE89F0A42FFFE5F0EC
:1000EE003EFEE433C98DF0A42EFEE5F039CD8AF044
:1000FE00A42FFFE5F03EFEE43DFD33D0E0FB5007BC
:10010E000BBB000F0201D8EC2CFCEF33FFEE33FEDD
:06011E00ED33FD0201B00B
:1001240075F020800E75F010800575F0087D007E56
:10013400007F003392D530D503120287EC33401090
:10014400EF33FFEE33FEED33FDEC33FCD5F0ED225F
:0E015400E5F0247EA2D513CC92E7CDCEFF229B
:10016200EDD2E7CD33EC3392D524814006E4FFFE95
:10017200FDFC22FCE4CFCECDCC24E0501174FF80F4
:10018200EDC3CC13CCCD13CDCE13CECF13CF047091
:07019200F030D5DE02028708
:10019900E9D2E7C933E833F892D5EDD2E7CD33ECAC
:0701A90033FC5002B2D52225
:1001B000EC30E7100FBF000C0EBE00080DBD0004B0
:1001C0000BEB6014A2D5EB13FCED92E7FD2274FF5C
:1001D000FCFDFEFF22E480F8A2D574FF13FC7D80B5
:0301E000E480EFC9
:030000000205B244
:0C05B200787FE4F6D8FD7581200205F981
:1001E300BC000BBE0029EF8DF084FFADF022E4CC00
:1001F300F875F008EF2FFFEE33FEEC33FCEE9DECC9
:10020300984005FCEE9DFE0FD5F0E9E4CEFD22ED0E
:10021300F8F5F0EE8420D21CFEADF075F008EF2F58
:10022300FFED33FD4007985006D5F0F222C398FD49
:050233000FD5F0EA22E6
:10023800E88FF0A4CC8BF0A42CFCE98EF0A42CFC65
:100248008AF0EDA42CFCEA8EF0A4CDA8F08BF0A4E3
:100258002DCC3825F0FDE98FF0A42CCD35F0FCEB42
:100268008EF0A4FEA9F0EB8FF0A4CFC5F02ECD3907
:0F027800FEE43CFCEAA42DCE35F0FDE43CFC2274
:10077F00C2D5E830E70FB2D5E4C39BFBE49AFAE4A5
:10078F0099F9E498F8EC30E717B2D51207B51202D1
:10079F00E7E4C39BFBE49AFAE499F9E498F8800341
:1007AF001202E730D50DE4C39FFFE49EFEE49DFDEA
:0407BF00E49CFC2298
:0E028700C3E49FFFE49EFEE49DFDE49CFC2288
:10029500EB9FF5F0EA9E42F0E99D42F0EC6480C8E0
:0602A50064809845F02280
:1005BE000208F1E493A3F8E493A34003F68001F25A
:1005CE0008DFF48029E493A3F85407240CC8C3333E
:1005DE00C4540F4420C8834004F456800146F6DF0D
:1005EE00E4800B010204081020408090000EE47E8F
:1005FE00019360BCA3FF543F30E509541FFEE49302
:10060E00A360010ECF54C025E060A840B8E493A3C8
:10061E00FAE493A3F8E493A3C8C582C8CAC583CAF3
:10062E00F0A3C8C582C8CAC583CADFE9DEE780BEAB
:01001A0000E5
:1002AB0075F008758200EF2FFFEE33FECD33CDCC0A
:1002BB0033CCC58233C5829BED9AEC99E58298408D
:1002CB000CF582EE9BFEED9AFDEC99FC0FD5F0D66A
:1002DB00E4CEFBE4CDFAE4CCF9A88222B800C1B994
:1002EB000059BA002DEC8BF084CFCECDFCE5F0CBD2
:1002FB00F97818EF2FFFEE33FEED33FDEC33FCEB0B
:10030B0033FB10D703994004EB99FB0FD8E5E4F9C5
:10031B00FA227818EF2FFFEE33FEED33FDEC33FCB2
:10032B00C933C910D7059BE99A4007EC9BFCE99AA6
:10033B00F90FD8E0E4C9FAE4CCFB2275F010EF2FEB
:10034B00FFEE33FEED33FDCC33CCC833C810D707EB
:10035B009BEC9AE899400AED9BFDEC9AFCE899F826
:0E036B000FD5F0DAE4CDFBE4CCFAE4C8F922B9
:00000001FF
