:0A07EA00C0F9A4B0999282F8809043
:0C07C500020C0000020E00000208000000
:0406FE007F0A7E00F1
:10070200D3EF9400EE9400401100007D027C0FDCD8
:0A071200FEDDFCEF1F70E91E80E61B
:01071C0022BA
:10061600EF603224FB601314601914601F2403700A
:1006260027E5A0541F4480F5A022E5A0541F44A04E
:10063600F5A022E5A0541F44C0F5A022E5A0541F52
:0906460044E0F5A02253A01F229C
:100593007C007D641201E57E007F0ACFCDCFCECCF7
:1005A300CE1201E574EA2FF58274073EF583E493D6
:0305B300FF7D06C3
:1005B600AE077F06120616AF05A80774010880026B
:1005C600C333D8FCF5807F071206168E807F0A7E1D
:0405D6000002070216
:10076A001207B67F9012064F1207957F0312064FA3
:06077A001207950207DEE4
:10071D001207B67F9112064F1207951206B4751186
:0B072D00008F12D2001207530207DEFB
:1006DA008E158F168D171207B67FA012064F1207B6
:1006EA0095AF1712064F120795AF1612064F12074B
:0406FA00950207DE80
:100684008F151207B67FA012064F120795AF1512E9
:10069400064F1207951207B67FA112064F1207954F
:1006A4001206B4750C008F0DD2001207530207DE38
:10027E00C2B2D2B3D2B4D2B520B50B1206FE20B59F
:10028E0005E4F50EF50F20B4301206FE20B42AE573
:10029E00106401702474CE250DF50D74FF350CF528
:1002AE000CE50DB4CE0BE50CB4FF06750C01750D07
:1002BE00F420B40512042A80F8D2B2C2B3D2B4D25A
:1002CE00B520B52E1206FE20B5280510E5106403E4
:1002DE007002F51020B51BE510640170031204EDD9
:1002EE00E5106402700312042AE51070E71205444B
:1002FE0080E220B42E1206FE20B428E510640170B0
:10030E00227432250DF50DE4350CF50CE50DB426F1
:10031E000AE50CB40205E4F50CF50D20B405120443
:04032E002A80F82207
:10073800AC11AD12E41201197B0C7A0279FB783FF7
:0B07480012000E1201528E0A8F0B22CD
:1004ED0012071D120738E4FD7FC11205B6AE0AAF23
:1004FD000B7C007D641201E574EA2FF58274073ED2
:10050D00F583E493547FFF7D051205B6AE0AAF0B5C
:10051D00120593AE0AAF0B7C007D0A1201E574EA59
:10052D002DF58274073CF583E493FF7D071205B624
:07053D007D077FFF0205B6F8
:10042A00E4FD7F8C1205B6AE0CAF0D7C007D641224
:10043A00023A74EA2FF58274073EF583E493547FF7
:10044A00FF7D051205B6AE0CAF0D7C007D6412026D
:10045A003A7E007F0ACFCDCFCECCCE12023A120519
:10046A00A7AE0CAF0D7C007D0A12023A74EA2DF594
:10047A008274073CF583E493FF7D071205B67D0776
:05048A007FFF0205B632
:10054400E4FD7FC81205B6AE0EAF0F7C007D6412C9
:1005540001E574EA2FF58274073EF583E493FF7D89
:10056400051205B6AE0EAF0F120593AE0EAF0F7C9B
:10057400007D0A1201E574EA2DF58274073CF583C7
:0F058400E493FF7D071205B67D077FFF0205B6E2
:10078000E4FF120684AE0CAF0D7C007D0A1201D38B
:050790008E0C8F0D220C
:03048F0012073819
:10049200C3E50B950DE50A950C4003751301E513B1
:1004A20064017016C3E50B950DE50A950C500B051A
:1004B2000FE50F7002050EE4F513E50F20E0077F4C
:1004C20004120616D281E50F30E0077F04120616E9
:1004D200C281E514640170077F04120616C280E52A
:0B04E2001470077F04120616D280225F
:1007A600758901758C3C758AB0D2A9D2AFD28C22DC
:03000B000205DA11
:0405DA00C0E0C0D0ED
:1005DE00758C3C758AAFC3E50B950DE50A950C50ED
:1005EE000A0509E509700D050880097514007508DE
:1005FE0000750900E509646445087007751401F576
:03060E0008F509E3
:05061100D0D0D0E03262
:1003BE007F05120616E4F5801F1206167580FF12D1
:1003CE00076A1207801207A6E51014601514603B29
:1003DE00240270F412027E12071D12048F1204ED15
:1003EE0080E612027E12071D12048F12042AAC0C34
:1003FE00AD0DEC1201197BCD7ACC79CC783D120083
:10040E000E120152E4FD1206DA80BD12027E1207B0
:0C041E001D12073812049212054480AC35
:0407D200D2A07F052D
:0807D60000AE071FEE70F922CE
:0F07B600D2A11207D2C2A17F051207D6C2A0227C
:0C07DE00C2A11207D2D2A17F050207D6EB
:10075300C2A0A20092A17F051207D61207D2C2A09F
:07076300D2A17F050207D6B9
:100795001207D2A2A19200C2A07F051207D6A2001D
:0107A5002231
:02064F00AD07F5
:10065100E4FCECC39408748094805024C2A07F050C
:100661001207D6ED30E704D2A18002C2A17F0512A4
:1006710007D6D2A0ED25E0FD7F051207D60C80D26A
:02068100C2A015
:010683002254
:1006B400E4FCECC394087480948050171207D2EDC4
:1006C40025E0FD30A103430501C2A07F051207D632
:0506D4000C80DFAF0502
:0106D90022FE
:10000E00EC4D6011E8497017ED33EC3304600DE4EC
:10001E00FCFFFEFD22E933E8330470F80201BE1244
:10002E00018958046009E4CC248150062850090245
:10003E0001C82840030201C5C0E0EB4A7044B980F4
:10004E0006D0E0FB0201B4EF4E701CBD8008EBFF42
:10005E00EAFEE9FD80EBE98DF0A4FEE5F00200F783
:10006E00E9CDF9EAFEEBFFEF89F0A4FCE5F0CE89CD
:10007E00F0A42EFFE435F0CD89F0A42DFEE435F08A
:10008E008067EF4E7005BD80D780C3EF8BF0A4ACB8
:10009E00F0EE8BF0A42CFCE435F0F8EF8AF0A42CF3
:1000AE00E5F038FCE433CB8DF0A42CFCE5F03BF806
:1000BE00EE8AF0A42CFCE5F038F8E433CF89F0A4F6
:1000CE002CFCE5F038CF3400CE89F0A42FFFE5F0FC
:1000DE003EFEE433C98DF0A42EFEE5F039CD8AF054
:1000EE00A42FFFE5F03EFEE43DFD33D0E0FB5007CC
:1000FE000BBB000F0201C8EC2CFCEF33FFEE33FEFE
:06010E00ED33FD0201A02B
:1001140075F020800E75F010800575F0087D007E66
:10012400007F003392D530D503120270EC334010B7
:10013400EF33FFEE33FEED33FDEC33FCD5F0ED226F
:0E014400E5F0247EA2D513CC92E7CDCEFF22AB
:10015200EDD2E7CD33EC3392D524814006E4FFFEA5
:10016200FDFC22FCE4CFCECDCC24E0501174FF8004
:10017200EDC3CC13CCCD13CDCE13CECF13CF0470A1
:07018200F030D5DE0202702F
:10018900E9D2E7C933E833F892D5EDD2E7CD33ECBC
:0701990033FC5002B2D52235
:1001A000EC30E7100FBF000C0EBE00080DBD0004C0
:1001B0000BEB6014A2D5EB13FCED92E7FD2274FF6C
:1001C000FCFDFEFF22E480F8A2D574FF13FC7D80C5
:0301D000E480EFD9
:03000000020332C6
:0C033200787FE4F6D8FD75812002037985
:1001D300EF8DF0A4A8F0CF8CF0A428CE8DF0A42E40
:0201E300FE22FA
:1001E500BC000BBE0029EF8DF084FFADF022E4CCFE
:1001F500F875F008EF2FFFEE33FEEC33FCEE9DECC7
:10020500984005FCEE9DFE0FD5F0E9E4CEFD22ED0C
:10021500F8F5F0EE8420D21CFEADF075F008EF2F56
:10022500FFED33FD4007985006D5F0F222C398FD47
:050235000FD5F0EA22E4
:10023A00C2D5EC30E709B2D5E4C39DFDE49CFCEEDF
:10024A0030E715B2D5E4C39FFFE49EFE1201E5C371
:10025A00E49DFDE49CFC80031201E530D507C3E46C
:06026A009FFFE49EFE224E
:0E027000C3E49FFFE49EFEE49DFDE49CFC229F
:10033E000203BEE493A3F8E493A34003F68001F214
:10034E0008DFF48029E493A3F85407240CC8C333C0
:10035E00C4540F4420C8834004F456800146F6DF8F
:10036E00E4800B01020408102040809007C5E47E53
:10037E00019360BCA3FF543F30E509541FFEE49384
:10038E00A360010ECF54C025E060A840B8E493A34B
:10039E00FAE493A3F8E493A3C8C582C8CAC583CA76
:1003AE00F0A3C8C582C8CAC583CADFE9DEE780BE2E
:0107D1000027
:00000001FF
