:0C05EE00C0F9A4B0999282F88090BFFF81
:10056E00040D0000000004110B0B0B0B0215000014
:10057E0001181E011714010800C100011900011A0B
:03058E0005C101A3
:1005B5001204A71205CD1203F38E158F16120434FB
:0805C50012000E12025C80EE30
:1004A700E5A0541F4480F5A07580FFE5A0541F44C4
:1004B700A0F5A0E4F580E5A0541F44C0F5A0758021
:0D04C700FFE5A0541F44E0F5A07580FF2262
:10047000E493FD7F031204DC7F011204877F04E410
:0704800093FD1204DC7F0173
:100487007E00D3EF9400EE940040147D2A7C03EDA8
:0F0497001D70011CED4C70F7EF1F70E61E80E327
:0104A6002233
:0804D4009005F8E493FDE4FF3C
:1004DC00E5A0541F44C0F5A0A8077401088002C30E
:1004EC0033D8FCF580E5A0541F44E0F5A08D8022A4
:1001DD001204D40F120487E51B9005EE93FD7F01E9
:1001ED001204DC1204879005F8E493FD7F021204DB
:1001FD00DC1F120487A31204707F0512047FAE1555
:10020D00AF167C007D0A12039E74EE2FF5827405E5
:10021D003EF583E493FD7F06120482AE15AF167C86
:10022D00007D0A12039E74EE2DF58274053CF58354
:10023D00E493FD7F07120482E5A0541F44C0F5A08E
:0F024D007580FFE5A0541F44E0F5A07580FF22E7
:1003F3001205237FCC1204FC7F441204FC7F0112FC
:1004030004871205237FCC1204FC7FBE1204FC1266
:1004130005928F1D1205928F1E120523E51EFEE520
:100423001DFFEEC4F854F0C868FEEFC4540F48FF34
:0104330022A6
:10043400AF0B7E00C3E5169FE5159E5005E4F51B42
:100444008027C3E5169FE5159E4010D3E516950C4D
:10045400E51594005005751B01800ED3E516950C27
:0C046400E51594004003751B0202054AD8
:10054A00E51B14600714601024027017E5A0541FFD
:10055A0044A0F5A0E4F58022E5A0541F44A0F5A02C
:04056A007580102266
:1005CD00758901758CD8758AF0D28CC28DD2A9D25D
:0205DD00AF224B
:03000B000202CE20
:1002CE00C0E0C0D0758CD8758AF00508D3E50894C7
:1002DE0028748094804003750800E51B603E14600E
:1002EE001A147047E508640A7041D28DF508E5A02E
:1002FE00541F4480F5A07580FF8015E508641470C6
:10030E002AD28DF508E5A0541F4480F5A04380FE47
:10031E00B280A280E433F51CC28D800FE5086428FC
:10032E007009F508B280A28033F51CD0D0D0E0322F
:10000E00C201C2C4D2B4D2B5D2C2D2B3D2B2D2B16C
:10001E00D2B020B0127F0512048720B047E4F50A53
:10002E00D20120B03F80FB20B1127F051204872041
:10003E00B132750A03D20120B12A80FB20B2127FA1
:10004E000512048720B21D750A06D20120B2158052
:10005E00FB20B3107F0512048720B308750A09D25E
:10006E000130B3FDC2C2D2B4D2B5D2C4D2B3D2B271
:10007E00D2B1D2B020B0127F0512048720B04475E1
:10008E000A01D20120B03C80FB20B1127F05120480
:10009E008720B12F750A04D20120B12780FB20B230
:1000AE00127F0512048720B21A750A07D20120B2F8
:1000BE001280FB20B30D7F0512048720B305B2001A
:1000CE0030B3FDC2B5D2B4D2C2D2C4D2B3D2B2D240
:1000DE00B1D2B020B0127F0512048720B051750A3C
:1000EE0002D20120B04980FB20B1127F0512048795
:1000FE0020B13C750A05D20120B13480FB20B2122A
:10010E007F0512048720B227750A08D20120B21F7C
:10011E0080FB20B31A7F0512048720B31275110BD2
:10012E0075120B75130B75140BE4F51A30B3FD3005
:10013E000110D3E51A9404748094804003E4F51AF8
:03014E00051A226D
:10025C002000121201DD85180C85170BE517C395CC
:10026C0018505E804F30005912033EC3E51A9405B6
:10027C0074809480501B7410251AF8A60AE5117529
:10028C00F00AA42512F518E51375F00AA42514F547
:10029C0017AF147E00EF640B6014E517D39518406C
:1002AC000DE5A0541F4480F5A04380FCC281EF648F
:1002BC000B4E700DE5A0541F4480F5A04380FCD27A
:0202CC0081228D
:10033E001204D40F120487E5119005EE93FD7F0190
:10034E001204DC120487E51293FD7F021204DC1FF7
:10035E001204879005F91204709005F8E493FD7F5E
:10036E0005120482E5139005EE93FD7F06120482BA
:10037E00E51493FD7F07120482E5A0541F44C0F5D7
:10038E00A07580FFE5A0541F44E0F5A07580FF2204
:0405DF007F327E00E9
:0B05E300EF1FAC0670011E4C70F622EA
:0204FC00AD074A
:1004FE00E4FBEBC39408748094805012C294ED1305
:10050E0092941205DFD294EDC313FD0B80E47F327B
:05051E007E000205E370
:10059200E4FBEBC39408748094805014C294EDC3BE
:1005A20013FDD2943094034305801205DF0B80E2E1
:0205B200AF0593
:0105B4002224
:10052300C202D2947F787E001205E3C2947F207EBC
:10053300031205E3D2947F647E001205E3A2949232
:06054300021205DFA20216
:01054900228F
:03000000020151A9
:0C015100787FE4F6D8FD7581200201984B
:10039E00BC000BBE0029EF8DF084FFADF022E4CC43
:1003AE00F875F008EF2FFFEE33FEEC33FCEE9DEC0C
:1003BE00984005FCEE9DFE0FD5F0E9E4CEFD22ED52
:1003CE00F8F5F0EE8420D21CFEADF075F008EF2F9C
:1003DE00FFED33FD4007985006D5F0F222C398FD8D
:0503EE000FD5F0EA222A
:10015D000205B5E493A3F8E493A34003F68001F2FE
:10016D0008DFF48029E493A3F85407240CC8C333A3
:10017D00C4540F4420C8834004F456800146F6DF72
:10018D00E4800B010204081020408090056EE47E8F
:10019D00019360BCA3FF543F30E509541FFEE49367
:1001AD00A360010ECF54C025E060A840B8E493A32E
:1001BD00FAE493A3F8E493A3C8C582C8CAC583CA59
:1001CD00F0A3C8C582C8CAC583CADFE9DEE780BE11
:010591000069
:00000001FF
