:100C9600C0F9A4B0999282F88090FFBF40792430C1
:100CA60019120278001080828486888A8C81838556
:0B0CB60087898B8D0030082403042286
:100D7500070A000000000000000109320108000117
:0B0D8500120001110101130201140112
:100BAF00120C0F7D327F01120D53120CE7120D0B39
:100BBF007F03120B498F08EF75F063A4FFAEF07C33
:100BCF00007DFF120A828F121208C012080080DD0A
:100C0F00E5A0541F4480F5A07580FFE5A0541F4454
:100C1F00A0F5A0E4F580E5A0541F44C0F5A07580B1
:0D0C2F00FFE5A0541F44E0F5A07580FF22F2
:100CE700E4F515C3E5159407748094805015E51550
:100CF700900CAC93FFE515900CBA93FD120DDC0533
:030D07001580E074
:010D0A0022C6
:100D0B00E4F515C3E5159407748094805015E5152B
:100D1B00900CB393FF120AD7740A2515F8A6070592
:030D2B001580E050
:010D2E0022A2
:100BDF0075F00A847F06900C9693FD120D337F01FA
:100BEF007E00D3EF9400EE940040147D2A7C03ED39
:0F0BFF001D70011CED4C70F7EF1F70E61E80E3B8
:010C0E0022C3
:040D2F0093FD7F01B0
:100D3300E5A0541F44C0F5A0A8077401088002C3AE
:100D430033D8FCF580E5A0541F44E0F5A08D802244
:100A0B00E50CC4540F900C9693FDE4FF120D330FBD
:100A1B00120BEFE50C540F120D2F120BEF900CA1D4
:100A2B00E493FD7F02120D331F120BEFE50BC45441
:100A3B000F7F03120BE5E50B540F93FD7F04120B95
:100A4B00EA900CA0E493FD7F05120BEAE512120B62
:100A5B00DFE51275F00A84E5F093FD7F07120BEAD0
:100A6B00E5A0541F44C0F5A07580FFE5A0541F44BA
:070A7B00E0F5A07580FF22E9
:020B49008F1506
:100B4B00120E017F90120B14120DF0AF15120B1435
:100B5B00120DF0120E1C120E017F91120B14120DBE
:100B6B00F0120CC18F16D200120DC5120E1CAF164F
:010B7B002257
:100C3C007F01120B7C8F09E512C39509500CE5A0BE
:100C4C00541F44A0F5A075801022E512C3950940ED
:0D0C5C000BE5A0541F44A0F5A0E4F5802294
:1008C00020B0227F05120BEF20B01AAF117E00EF8F
:1008D000640170057511028009EF64024E700375A2
:1008E000110130B0FDE51124FE60390460030209F6
:1008F0007EE5A0541F4480F5A07580FE20B1227FC4
:1009000003120BEF20B11AAF137E00EF64017005E4
:100910007513028009EF64024E700375130130B144
:10092000FD020C3CE5A0541F4480F5A05380FD203F
:10093000B1247F03120BEF20B144AF147E00EF64AB
:100940000170057514028009EF64024E700375147E
:100950000120B12A80FB20B2147F05120BEF20B2D8
:100960001DE5A0541F44A0F5A04380102220B30E23
:0F09700020B30BE5A0541F44A0F5A05380EF2245
:100DAD00E51424FE600604700E020C69E5A0541FC4
:080DBD0044A0F5A05380BF2201
:100800007F01120B7C8F09E51324FE70030208B5EB
:100810000460030208BF20B20F7F05120BEF20B265
:1008200017050920B21280FB20B30D7F05120BEFD4
:1008300020B305150930B3FDD3E5099463748094A2
:10084000804003E4F509AD097F01120D53900CA11E
:10085000E493FDE4FF120D330F120BEFE4120D2FA2
:10086000120BEF900CA0E493FD7F02120D331F12C8
:100870000BEFE493FD7F03120BEAE493FD7F041278
:100880000BEAE493FD7F05120BEAE509120BDFE5A5
:100890000975F00A84E5F093FD7F07120BEAE5A0E5
:1008A000541F44C0F5A07580FFE5A0541F44E0F537
:1008B000A07580FF22AD097F01120D53120A0B2291
:100D53008F158D16120E017FA0120B14120DF0AF1A
:100D630015120B14120DF0AF16120B14120DF00224
:020D73000E1C54
:020B7C008F15D3
:100B7E00120E017FA0120B14120DF0AF15120B14F2
:100B8E00120DF0120E1C120E017FA1120B14120D7B
:100B9E00F0120CC18F16D200120DC5120E1CAF161C
:010BAE002224
:100C69007F01120B7C8F09E512C39509500CE5A091
:100C7900541F44A0F5A043804022E512C3950940C2
:0D0C89000BE5A0541F44A0F5A05380BF222E
:040E1000D2A07F05E8
:080E140000AE071FEE70F92289
:0F0E0100D2A1120E10C2A17F05120E14C2A022A0
:0C0E1C00C2A1120E10D2A17F05020E141C
:100DC500C2A0A20092A17F05120E14120E10C2A09D
:070DD500D2A17F05020E14FC
:100DF000120E10A2A19200C2A07F05120E14A20032
:010E000022CF
:020B1400AD072B
:100B1600E4FCECC39408748094805024C2A07F0542
:100B2600120E14ED30E704D2A18002C2A17F051295
:100B36000E14D2A0ED25E0FD7F05120E140C80D216
:020B4600C2A04B
:010B4800228A
:100CC100E4FCECC39408748094805017120E10ED6C
:100CD10025E0FD30A103430501C2A07F05120E14DA
:050CE1000C80DFAF05EF
:010CE60022EB
:100D9100E4FEEEC3940874809480500FC297EF1361
:0B0DA10092A3EFC313FFD2970E80E770
:010DAC002224
:100DDC00C29300C29700D29300120D91AF05120D71
:040DEC0091C29322FB
:100AD700E4FDC29300C29700D29300120D91E4FF88
:100AE700EFC39408748094805011C297EDC313FD2F
:100AF70030A303430580D2970F80E5C29300C297C6
:0C0B070000D29700C2A300D2A300AF05EB
:010B130022BF
:0300000002097F73
:0C097F00787FE4F6D8FD7581200209C6DF
:100A8200BC000BBE0029EF8DF084FFADF022E4CC58
:100A9200F875F008EF2FFFEE33FEEC33FCEE9DEC21
:100AA200984005FCEE9DFE0FD5F0E9E4CEFD22ED67
:100AB200F8F5F0EE8420D21CFEADF075F008EF2FB1
:100AC200FFED33FD4007985006D5F0F222C398FDA2
:050AD2000FD5F0EA223F
:10098B00020BAFE493A3F8E493A34003F68001F2C8
:10099B0008DFF48029E493A3F85407240CC8C3336D
:1009AB00C4540F4420C8834004F456800146F6DF3C
:1009BB00E4800B0102040810204080900D75E47E4A
:1009CB00019360BCA3FF543F30E509541FFEE49331
:1009DB00A360010ECF54C025E060A840B8E493A3F8
:1009EB00FAE493A3F8E493A3C8C582C8CAC583CA23
:1009FB00F0A3C8C582C8CAC583CADFE9DEE780BEDB
:010D90000062
:00000001FF
